:100000000C94C7000C94F0000C94F0000C94F000D9
:100010000C94F0000C94F0000C94E1030C94F000AC
:100020000C94F0000C94F0000C94F0000C94A009D7
:100030000C94F0000C94F0000C9400090C94F00067
:100040000C94F0000C94F0000C94F0000C94F00070
:100050000C94F0000C94F0000C94F0000C94C20985
:100060000C94F0000C94F0004704C3041B04120429
:100070001804A5049A04250B020A020A220B2E0B6F
:100080001E0B350B310B390BF10AC30A6E616E0082
:10009000696E660000407A10F35A00A0724E18098B
:1000A0000010A5D4E80000E87648170000E40B54DF
:1000B000020000CA9A3B000000E1F50500008096AE
:1000C0009800000040420F000000A08601000000E0
:1000D000102700000000E80300000000640000009A
:1000E00000000A00000000000100000000002C7663
:1000F000D888DC674F0823DFC1DFAE59E1B1B7967E
:10010000E5E3E453C63AE651997696E8E6C28426DA
:10011000EB898C9B62ED407C6FFCEFBC9C9F40F2B6
:10012000BAA56FA5F490055A2AF75C936B6CF96732
:100130006DC11BFCE0E40D47FEF520E6B500D0EDF7
:10014000902E0300943577050080841E080000205F
:100150004E0A000000C80C333333330F986E1283FD
:100160001141EF8D2114893BE65516CFFEE6DB18D1
:10017000D1844B381BF77C1D901DA4BBE424203296
:1001800084725E228100C9F124ECA1E53D2711248F
:100190001FBECFEFD8E0DEBFCDBF14BE0FB6F894C0
:1001A000A895809160008861809360001092600043
:1001B0000FBE11E0A0E0B1E0E8EAF9E202C005906C
:1001C0000D92AE30B107D9F721E0AEE0B1E001C049
:1001D0001D92A338B207E1F70E94E70F0C94D214E6
:1001E0000C940000CF93DF93E0910001F0910101A6
:1001F00081E08283EB0188819981AA81BB8183831D
:100200009483A583B683DF91CF91089580910001F7
:100210009091010107960895CF93DF93C09100015B
:10022000D091010181E0888319821A82188A809115
:100230007E018F83CE0107960E94CC0B9A8B898B0F
:1002400080917E0190917F01892B29F083E0DF91DD
:10025000CF910C947C0980E0DF91CF910C947C09C4
:10026000CF93DF93C0910001D09101018A81811168
:1002700036C08981882381F180917E0190917F0130
:10028000892B51F1E0910001F091010180818823D7
:10029000F1F0813009F58181883270F18C3308F4F6
:1002A00058C0C0916E01CC2361F08091B4008111DF
:1002B00008C06FEF80E00E945B058FE090E00E9435
:1002C00050056C2F80E0DF91CF910C945B0581810C
:1002D0008C33A0F081E08083DF91CF9108951A8262
:1002E000CE0103960E944106898380917E01909100
:1002F0007F01892B39F6F0CF1082EECFD0918101AA
:10030000C0918001CC23A9F08091B30091E08111CC
:1003100090E0892F8195DD23A1F09091B400911197
:1003200010C06FEF0E945B058FE090E00E945005C7
:100330000AC0DD2341F08091B400811104C080E047
:10034000F0CF81111CC06D2F8C2FDF91CF910C94B9
:100350005B05C0918201CC2361F08091B3008111D3
:1003600008C060E08FEF0E945B058FE090E00E9484
:10037000500560E08C2FDF91CF910C945B058FEFDF
:1003800060E0D0CFCF93DF93C82FD62F882311F111
:100390008091B30091E0811125C0892F8195D11101
:1003A00008C0811125C06D2F8C2FDF91CF910C9447
:1003B0005B059091B4009111F4CF6FEF0E945B0543
:1003C0008FE090E00E9450056D2F8C2FDF91CF9130
:1003D0000C945B05662339F38091B4008111E3CF5F
:1003E00080E0EBCF90E0892F8195DD23D1F2E1CF42
:1003F0008FEF60E0E3CFCF93DF938130D1F198F1BD
:100400008230C1F0833061F5C0916E01CC2361F080
:100410008091B400811108C06FEF80E00E945B05FD
:100420008FE090E00E9450056C2F80E0DF91CF912B
:100430000C945B05C0918201CC2361F08091B300E4
:10044000811108C060E08FEF0E945B058FE090E0B3
:100450000E94500560E08C2FDF91CF910C945B05DA
:10046000DF91CF91089560E080E0DF91CF910C940F
:100470005B05C0918101D0918001DD23D1F0809195
:10048000B30091E0811190E0892F8195CC23C9F0D0
:100490009091B400911115C06FEF0E945B058FE041
:1004A00090E00E9450056C2F8D2FDF91CF910C941E
:1004B0005B05CC2341F08091B400811104C080E041
:1004C000EBCF811106C06C2F8D2FDF91CF910C9453
:1004D0005B058FEF60E0E1CFCF93E0910001F091F9
:1004E00001018181883260F18C33A8F0C0916E01E6
:1004F000CC2361F08091B400811108C06FEF80E0DF
:100500000E945B058FE090E00E9450056C2F80E018
:10051000CF910C945B05C0918201CC2361F0809156
:10052000B300811108C060E08FEF0E945B058FE08F
:1005300090E00E94500560E08C2FCF910C945B05F9
:100540001082CF910895CF93DF93E0910001F09155
:10055000010181818C3328F081E08083DF91CF918C
:100560000895C0918101D0918001DD23D1F0809167
:10057000B30091E0811190E0892F8195CC23C9F0DF
:100580009091B400911115C06FEF0E945B058FE050
:1005900090E00E9450056C2F8D2FDF91CF910C942D
:1005A0005B05CC2341F08091B400811104C080E050
:1005B000EBCF811106C06C2F8D2FDF91CF910C9462
:1005C0005B058FEF60E0E1CFCF93DF93C091000137
:1005D000D0910101188A80917E018F83CE01079608
:1005E0000E94CC0B9A8B898BDF91CF91089508954F
:1005F00080E090E008950895DF92EF92FF920F93CC
:100600001F93CF93DF93F89414B817B81AB815B89E
:1006100018B81BB8529A5A9A14BC85E085BD8FEF62
:1006200087BD82E080936E0010928000109281005E
:100630002FE83BE0309389002093880080936F007F
:100640005398239891EA9093B0008093B100109250
:10065000B4001092B3008BE080BF83E080937F00F2
:1006600086E080937C0083E880937A0080917A0012
:10067000806480937A0080917A0086FDFCCF10928E
:100680007C0083EA80937A0081E080937B0081E0A4
:1006900090E00E9468148F3F11F0809366001092E2
:1006A0004C01C1E0C0932501C09369011092430140
:1006B00010927D0180E990E00E94681480934201CD
:1006C00080914201887311F0C093420110926D0134
:1006D00010926C018FEF90E090936B0180936A0110
:1006E000109248011092490110924A0110924B0158
:1006F00081E08093110182E49FE090937C018093DC
:100700007B0180EB90E00E946814C82F81EB90E0A1
:100710000E9468142C2F30E0382B30937F012093F7
:100720007E0185E090E00E9468148093820189E058
:1007300090E00E94681480936E018CE090E00E942B
:1007400068148093800184E190E00E946814809393
:1007500081015DE4E52E51E0F52E06E211E0C0E2F4
:10076000D0E0CE010E946814D82ECE0101960E94DE
:1007700068142D2D30E0322F2227282BF7012193EA
:1007800031937F01CE01C0960E946814D82ECE010D
:10079000C1960E9468142D2D30E0322F2227282B7D
:1007A000F801219331938F012296CC33D105C9F6FC
:1007B0007894DF91CF911F910F91FF90EF90DF9090
:1007C00008951F920F920FB60F9211248F930FB6B8
:1007D000F894A895809160008861809360001092E1
:1007E00060000FBE8F910F900FBE0F901F90189555
:1007F0003C01EB0110E099249A9484E0C82E96E025
:10080000A92E23E8B22E38E1D32E49E2E42E9091AE
:100810001101E92FF0E0E730F105C8F7EC5CFF4F7C
:100820000C941810112309F4FCC0C092110111E0BE
:10083000FE010995ECCF80914C018111EBC0F89439
:10084000A0927C00B0927A0080917A0080648093BC
:100850007A0090917A0096FDFCCF8091780090917B
:10086000790078948B3AE2E09E070CF0EDC089386D
:10087000F2E09F070CF0EFC0873692400CF4CAC03C
:10088000559A549A3B9A3A9A3D983C98C0CFF8941E
:1008900080B7877F80BF80917A008F7780937A00BE
:1008A00014B817B81AB815B818B81BB80FB6F8941A
:1008B000A895D09260000FBEE09260008091600029
:1008C00080648093600093B7917F946093BFF894A5
:1008D00083B7816083BF7894889583B78E7F83BF09
:1008E000789410924C01529A5A9A80917A008068BA
:1008F00080937A0087E592E00197F1F700C000004D
:1009000080B7886180BF559A549A3B9A3A9A3D9A2B
:100910003C9AEFE1FEE43197F1F700C000008091CE
:100920004C01811181C0559854983B983A983D9854
:100930003C986DCF80910F01811141C01092B3009E
:100940001092B4001092100162CF4899ECCF559AE2
:1009500054983B983A983D983C988FEC97E00197D3
:10096000F1F700C00000559854983B983A983D988C
:100970003C989FEFE1EEF4E09150E040F040E1F769
:1009800000C0000044CF559854983B9A3A9A3D983D
:100990003C98EFECF7E03197F1F700C00000559874
:1009A00054983B983A983D983C98FFEF21EE84E0AC
:1009B000F15020408040E1F700C0000028CF909126
:1009C0000F0180911001981709F421CF80910F0138
:1009D0008093100180910F01813009F450C0809103
:1009E0000F011092B3009092B4008230D9F190922E
:1009F000B3009092B4008FE295E70197F1F700C041
:100A0000000080918101909180019093B3008093C8
:100A1000B400FDCE559A549A3B983A983D983C982C
:100A2000F6CEF301099501CF559A549A3B983A981E
:100A30003D983C98FFEF20E782E0F1502040804055
:100A4000E1F700C000006FCF559854983B9A3A9A4E
:100A50003D983C98DCCE559854983B983A983D9AEE
:100A60003C9AD5CEEFE2F5E73197F1F700C00000F0
:100A700080916E011092B3008093B400C8CE909222
:100A8000B3001092B4008FE295E70197F1F700C030
:100A90000000809182018093B3001092B400B7CE21
:100AA00007C0EFECF7E03197F1F700C000000197C5
:100AB0000097B9F708958093B3006093B400089548
:100AC0008FEF8093B3008093B4008FE090E0EFEC61
:100AD000F7E03197F1F700C000000197C1F70895E2
:100AE00080914C0181111EC0F89487E080937C00B6
:100AF00083E880937A0080917A00806480937A0002
:100B000080917A0086FDFCCF8091780090917900E9
:100B100010927C0023EA20937A0021E020937B004E
:100B2000789408958FEF9FEF089580914C01811183
:100B30001EC0F89488EC80937C0087E880937A004C
:100B400080917A00806480937A0080917A0086FD9B
:100B5000FCCF809178009091790010927C0023EA7C
:100B600020937A0021E020937B00789408958FEF02
:100B70009FEF08950F931F93CF93DF93E0E0F0E092
:100B800080E003EA11E0D6E0C3E8A1E0B0E060E86D
:100B900070E0F894D0937C00C0937A0090917A0032
:100BA000906490937A0090917A0096FDFCCF20910A
:100BB000780030917900217090917A009064909340
:100BC0007A0090917A0096FDFCCF40917800509188
:100BD000790010927C0000937A0010937B00789447
:100BE0004170241303C06150710999F6222339F032
:100BF0009D010E2E01C0220F0A94EAF7822B319636
:100C0000E830F10509F0C3CFDF91CF911F910F912B
:100C1000089580910201982F990F990F990F8927B4
:100C200090910E0121E0290F20930E01282F22958B
:100C3000269527708227969596958927809302019D
:100C4000089580930201089580914C01811116C08E
:100C5000F89486E080937C0083E880937A0080910A
:100C60007A00806480937A0080917A0086FDFCCFC0
:100C70008091780090917900789408958FEF9FEF9C
:100C800008952F923F924F925F926F927F928F9230
:100C90009F92AF92BF92CF92DF92EF92FF920F930B
:100CA0001F93CF93DF9300D000D000D0CDB7DEB735
:100CB0001C01DC0112960D90BC91A02DBE83AD836A
:100CC000A438E3E0BE070CF0C9C0809126019091E2
:100CD00027018A179B0708F437C10091280110915A
:100CE00029010A171B0708F42FC200912A0110914D
:100CF0002B010A171B0708F42FC200912C01109139
:100D00002D010A171B0708F42FC200912E01109124
:100D10002F010A171B0708F42FC200913001109110
:100D200031010A171B0708F4EFC10091320110913D
:100D300033010A171B0708F427C2009134011091F0
:100D400035010A171B0708F427C2009136011091DC
:100D500037010A171B0708F427C2009138011091C8
:100D600039010A171B0708F427C200913A011091B4
:100D70003B010A171B0708F427C200913C011091A0
:100D80003D010A171B0708F423C200913E01109190
:100D90003F010A171B0708F423C20091400110917C
:100DA00041010A171B0708F423C280E090E0A0ED80
:100DB000B0E489839A83AB83BC834CE0E42EF12CAE
:100DC000F701EE0FFF1FEA5DFE4F80819181B801B0
:100DD000681B790B80E090E00E948D119B01AC01B3
:100DE0000E9479106B017C01AD81BE81BD01BB0FFA
:100DF000880B990B0E948F114B015C01B80180E0B8
:100E000090E00E948D112B013C0129813A814B8198
:100E10005C81C701B6010E941B129B01AC01C3019A
:100E2000B2010E9478109B01AC01C501B4010E947F
:100E3000781020E030E040E251E40E941B120E9452
:100E400057118B01C701B6010E945711AB01BC01BC
:100E5000C801BA010E940410162F77C0DC01CD90A2
:100E6000DC9080914D0190914E018C159D0508F408
:100E70008CC01FEFE0904F01F0905001EC14FD0486
:100E800008F45EC1E0905101F0905201EC14FD04B1
:100E900008F45EC1E0905301F0905401EC14FD049D
:100EA00008F45EC1E0905501F0905601EC14FD0489
:100EB00008F45EC1E0905701F0905801EC14FD0475
:100EC00008F4C3C0E0905901F0905A01EC14FD04FD
:100ED00008F456C1E0905B01F0905C01EC14FD0455
:100EE00008F456C1E0905D01F0905E01EC14FD0441
:100EF00008F456C1E0905F01F0906001EC14FD042D
:100F000008F456C1E0906101F0906201EC14FD0418
:100F100008F456C1E0906301F0906401EC14FD0404
:100F200008F45AC1E0906501F0906601EC14FD04EC
:100F300008F45AC1E0906701F0906801EC14FD04D8
:100F400008F45AC10AE531C010E0ED81FE81ED3BA5
:100F5000F240FCF481E2810F26960FB6F894DEBFD2
:100F60000FBECDBFDF91CF911F910F91FF90EF90FA
:100F7000DF90CF90BF90AF909F908F907F906F90B9
:100F80005F904F903F902F90089500E081E2800F96
:100F9000E3CFD101CD90DC9080914D0190914E0135
:100FA0008C159D0508F066CF00E01F3F79F3ED81B9
:100FB000FE81BF01FF0F880B990B0E948F116B01FF
:100FC0007C01612F70E080E090E00E948D114B0168
:100FD0005C01A701960160E070E081E694E40E9464
:100FE00078109B01AC01C501B4010E941B124B019A
:100FF0005C01602F70E080E090E00E948D112B0179
:101000003C0120E030E04FE254E4C701B6010E9409
:1010100078109B01AC01C301B2010E941B129B011D
:10102000AC01C501B4010E94791020E030E048E431
:1010300053E40E94E51020E030E044E052E40E94D6
:1010400079100E945E11862F87CF05E085E090E041
:10105000880F991FFC01E55BFE4F80819181B701EC
:10106000681B790B80E090E00E948D119B01AC0120
:101070000E9479104B015C01B601DD0C880B990BC5
:101080000E948F112B013C01B70180E090E00E948B
:101090008D116B017C01602F70E080E090E00E9478
:1010A0008D1120E030E040E05FE30E941B1220E061
:1010B00030E0A9010E947910A50194010E941B1241
:1010C0009B01AC01C701B6010E9478109B01AC01E5
:1010D000C301B2010E94781020E030E040E251E408
:1010E0000E941B120E9457117B01C501B4010E948E
:1010F0005711AB01BC01C701BA010E940410062FB1
:101100006F3F09F052CF26CF65E085E090E07C018B
:10111000F1E0EF1AF10870E080E090E00E948D119C
:1011200020E030E040E05FE30E941B1220E030E06E
:10113000A9010E94791069837A838B839C8340CEB6
:1011400001E081E090E084CF61E081E090E0DFCFDA
:1011500002E082E090E07CCF62E082E090E0D7CFD6
:1011600003E083E090E074CF63E083E090E0CFCFD2
:1011700004E084E090E06CCF64E084E090E0C7CFCE
:1011800006E086E090E064CF66E086E090E0BFCFC6
:1011900007E087E090E05CCF67E087E090E0B7CFC2
:1011A00008E088E090E054CF68E088E090E0AFCFBE
:1011B00009E089E090E04CCF69E089E090E0A7CFBA
:1011C0000AE08AE090E044CF6AE08AE090E09FCFB6
:1011D0006BE08BE090E09BCF0BE08BE090E038CFB2
:1011E0006CE08CE090E093CF0CE08CE090E030CFAE
:1011F0006DE08DE090E08BCF0DE08DE090E028CFAA
:101200001F920F920FB60F9211242F933F934F937B
:101210005F936F937F938F939F93AF93BF93EF935E
:10122000FF9320916C0130916D0180916A01909142
:101230006B01820F931F90936D0180936C018FEF70
:1012400090E090936B0180936A018FEF87BD80914E
:10125000480190914901A0914A01B0914B0101963A
:10126000A11DB11D8093480190934901A0934A01AB
:10127000B0934B0180914C0181110FC080917B0193
:1012800090917C0120916C0130916D018217930740
:1012900020F480911101843089F0FF91EF91BF918A
:1012A000AF919F918F917F916F915F914F913F91FE
:1012B0002F910F900FBE0F901F901895E091050190
:1012C000F09106010995009741F30E94E80B811106
:1012D00009C00E94D412992790936B0180936A01F0
:1012E00087BDDBCFE0910301F091040109951092D5
:1012F0006D0110926C01D1CF80FF11C0559A81FF12
:1013000011C0549A82FF11C03B9A83FF11C03A9AD0
:1013100084FF11C03D9A85FD11C03C9808955598F1
:1013200081FDEFCF549882FDEFCF3B9883FDEFCF47
:101330003A9884FDEFCF3D9885FFEFCF3C9A089512
:101340001F920F920FB60F9211248F939F931092BA
:101350008100109285001092840081E08093250125
:101360008093690110924C0110927C0093EA909353
:101370007A0080937B009F918F910F900FBE0F900A
:101380001F9018951F920F920FB60F9211242F9352
:101390003F934F935F936F937F938F939F93AF93FD
:1013A000BF93CF93DF93EF93FF932091840030910D
:1013B000850041E040934C01809125018823A9F1EB
:1013C00010928500109284004093810010927D015C
:1013D00010922501809169018823A1F080917A0003
:1013E00086FDFCCF80917800909179009093470121
:1013F0008093460181E080937C0093EA90937A0089
:1014000080937B00FF91EF91DF91CF91BF91AF91DE
:101410009F918F917F916F915F914F913F912F910C
:101420000F900FBE0F901F901895C9018758910912
:101430008437994008F052C026583109A4EFB0E033
:101440000E941E10AA27BB2788309105A105B1056F
:1014500008F47BC04093250180916901811152C03D
:1014600080914301E82FF0E0E159FE4F90917D011A
:1014700090838F5F809343018C3021F6109281001E
:1014800010928500109284004093690110924C01E3
:10149000C0917901D0917A018FE691E00E94CC0B46
:1014A000C817D90709F0AECF8091780187FF61C0D6
:1014B00098E7980F933030F0539823981092B40027
:1014C0001092B30090E0FC01E058F109EB30F10517
:1014D00008F098CFE55CFF4F0C9418101092810033
:1014E0001092850010928400409325014093690179
:1014F00010924C0110927C0083EA80937A00409312
:101500007B0080CF80917A0086FDFCCF80917800AF
:1015100090917900909345018093440110927C0052
:1015200083EA80937A0081E080937B0090917D0133
:101530009923D1F0109281001092850010928400BE
:101540008093690110924C015DCF21E030E0F901F8
:1015500002C0EE0FFF1F8A95E2F7CF0190917D0147
:10156000892B80937D014ECF109269011092430127
:1015700049CFE0910701F091080164E471E08FE642
:1015800091E009953FCF80916F01823009F4DDC071
:1015900008F4BAC0833009F4C6C0843009F0B1C081
:1015A00080910F0190917501833009F4E3C080911F
:1015B00074011092100123E020930F0180938001A9
:1015C0009093810180911101863009F41BCF539AC9
:1015D000239A1092B4001092B30086E08093110118
:1015E00011CF80911101863099F0539A239A10926D
:1015F000B4001092B300559854983B983A983D988F
:101600003C9810920F011092100186E08093110116
:1016100081E090E09C0100906F0102C0220F331F17
:101620000A94E2F780917E0190917F0182239323B7
:10163000892B09F086C010920F01E4CE81E08093DF
:101640001101E0CEE0E0F0E0099580916E008D7F21
:1016500080936E0016BCE0E0F0E70995109211014E
:10166000D1CE82E080931101CDCE85E0809311012F
:10167000C9CE80911101833009F4C4CE809111014B
:10168000843009F4BFCE539A239A1092B40010927A
:10169000B30083E080931101B5CE809111018630B3
:1016A00009F0B0CE60917E0180EB90E00E94701452
:1016B00060917F0181EB90E00E9470146091820143
:1016C00085E090E00E94701460916E0189E090E0E6
:1016D0000E947014609180018CE090E00E94701470
:1016E0006091810184E190E00E94701453982398E6
:1016F0001092B4001092B30081E0809311018091A8
:101700006F0181115FCF7ECE882339F28130C9F716
:10171000809170019091710190937F0180937E017F
:1017200010920F014FCF80910F01823071F18091A3
:1017300073011092100192E090930F0180936E015B
:1017400041CF81E080930F015DCE80910F01813008
:1017500051F0809172011092100191E090930F016D
:10176000809382012FCF8091720190918201891321
:10177000F2CF28CF80918101981319CF8091740105
:1017800020918001821315CF1DCF8091730190911C
:101790006E018913CECF16CFFC01AC01465F5F4FBF
:1017A0008FEF9FEF21918227082E8295807F8025E1
:1017B000092E982F82958F7008268695982789275D
:1017C000880F880F880F8025E417F50759F70895CB
:1017D0000FB6F894A4B1209142012A2B24B921E03C
:1017E00030914201203029F0000025B1232B25B98A
:1017F00004C000000000000000C000000000000065
:10180000309525B1232325B92EEA2A95F1F72BEE41
:1018100030B735FF0AC0A4B930914201309525B1E7
:10182000232325B90FBE80E0089500002A9581F793
:1018300021E030914201203029F0000025B1232B16
:1018400025B904C000000000000000C00000000036
:101850000000309525B1232325B9000024E52A9501
:10186000F1F7FC018CE0619170E0660F771F616019
:1018700072609AE041E050E09A0126233723232B3F
:1018800030914201203029F0000025B1232B25B9E9
:1018900004C000000000000000C0000000000000C4
:1018A000309525B1232325B9000021E52A95F1F7CC
:1018B000440F551F9A9501F78A95A9F620B7206124
:1018C00020BFA4B930914201309525B1232325B919
:1018D0000FBE81E00895A3E1B0E0E1E7FCE00C94E5
:1018E0002D106C014B012A01FC01178216828381A5
:1018F00081FF43C3AE014F5F5F4F3A01F601938111
:10190000F40193FD859193FF81914F01882309F4A0
:1019100030C3853239F493FD859193FF81914F0156
:10192000853239F4B60190E00E94D21352012501AC
:10193000E5CF10E0F12C20E02032A0F48B3269F0EA
:1019400030F4803259F0833269F420612CC08D323A
:1019500039F0803339F4216026C02260246023C02E
:10196000286021C027FD27C030ED380F3A3078F4C9
:1019700026FF06C0FAE01F9F300D1124132F13C05D
:101980004AE0F49E300D1124F32E20620CC08E32FA
:1019900021F426FDEEC2206406C08C3611F42068C6
:1019A00002C0883641F4F40193FD859193FF819143
:1019B0004F018111C1CF9BEB980F933018F4206138
:1019C000805E06C09BE9980F933008F071C12F7EAE
:1019D00026FF16E02F73322E853619F42064322E3E
:1019E00008C0863621F4F22FF0683F2E02C0111194
:1019F000115037FE07C01C3350F4EE24E394E10E7F
:101A000027E00BC0183038F027E017E005C027E0CA
:101A10004CE3E42E02C0212FE12C520144E0A40E3D
:101A2000B11CF20160817181828193810E2DA3012D
:101A30000E94E4122C01098100FF02C003FF07C0CD
:101A400031FC08C032FE09C030E2232E07C02DE26F
:101A5000222E04C09BE2292E01C0212C802F8C70E5
:101A600019F0211068C2A8C237FE0FC0E40C04FFB1
:101A700004C08A81813309F4EA941E1474F5F8E0F5
:101A8000FE1578F588E0E82E2CC036FC2AC0812FA0
:101A900090E0841595059CF02CEF42162FEF52062E
:101AA00074F0432D4068342E0AC0E2E0F0E0EC0F01
:101AB000FD1FE10FF11D8081803319F411501111C8
:101AC000F4CF37FE0EC0EE24E394E10E812F90E0B8
:101AD000481659062CF4141904C0EE24E39401C0EE
:101AE00010E037FE06C01414150434F4C201019648
:101AF00005C085E090E002C081E090E021100196F1
:101B0000112331F0212F30E02F5F3F4F820F931FC1
:101B10002F2D30E08217930714F4F81A01C0F12C2E
:101B2000832D897049F4FF2039F0B60180E290E0FE
:101B30000E94D213FA94F7CF222029F0B601822D09
:101B400090E00E94D21333FC09C0FF2039F0B601A7
:101B500080E390E00E94D213FA94F7CF37FE5AC088
:101B6000942D852D57FE02C090E080E0292E382E5E
:101B700020E030E0A2014E1951095D874C87A20197
:101B8000421953095F874E87612F70E0442755271C
:101B9000461B570B598B488B5FEF2516350649F4CA
:101BA000B6018EE290E02A8B3B8B0E94D2133B89D8
:101BB0002A89421453046CF04C855D854215530507
:101BC00044F4EE85FF85E20FF31FE60DF71D8181DA
:101BD00001C080E351E0251A31082F5F3F4F48894B
:101BE0005989241635064CF0B60190E02A8B3B8BC0
:101BF0000E94D2132A893B89CFCF2414350439F4AB
:101C00009A81963318F4953311F404FF81E3B601F9
:101C100090E04BC08A81813309F00F7EB60190E0DD
:101C20000E94D213111105C034FC18C085E690E063
:101C300017C0B6018EE290E00E94D21382E0EE243B
:101C4000E394E80EF301E80FF11D8081B60190E006
:101C50000E94D21311508E2D91F7E6CF85E490E0CB
:101C6000B6010E94D21357FC05C04114510439F447
:101C700004FF05C05194419451088DE201C08BE2EC
:101C8000B60190E00E94D21380E39AE04916510415
:101C90002CF08F5F5AE0451A5108F7CFB60190E05B
:101CA0000E94D213B601C201C0960E94D21357C13E
:101CB000833631F0833779F0833509F058C021C07D
:101CC0005201E2E0AE0EB11CF2018081898301E095
:101CD00010E0230114C05201F2E0AF0EB11CF2017A
:101CE0004080518026FF03C0612F70E002C06FEF7B
:101CF0007FEFC2012A8B0E94C7138C012A892F779C
:101D000015C05201F2E0AF0EB11CF20140805180CB
:101D100026FF03C0612F70E002C06FEF7FEFC201AA
:101D20002A8B0E94BC138C012A892068322E23FD45
:101D30001AC08F2D90E008171907A8F4B60180E2A9
:101D400090E00E94D213FA94F4CFF20137FC85910F
:101D500037FE81912F01B60190E00E94D213F1105D
:101D6000FA94015011090115110579F7F8C084366C
:101D700011F0893659F5520127FF09C0F4E0AF0E82
:101D8000B11CF20160817181828193810AC0F2E00D
:101D9000AF0EB11CF20160817181072E000C880B1F
:101DA000990B2F76322E97FF09C0909580957095EC
:101DB00061957F4F8F4F9F4F2068322E2AE030E091
:101DC000A3010E940A14E82EE6183FC0022F8537AF
:101DD00021F40F7E2AE030E01DC0097F8F3691F09C
:101DE00018F4883559F0C5C0803719F0883711F0DC
:101DF000C0C0006104FF09C0046007C024FF08C020
:101E0000066006C028E030E005C020E130E002C0F6
:101E100020E132E0520107FF09C0F4E0AF0EB11C2F
:101E2000F201608171818281938108C0F2E0AF0E7E
:101E3000B11CF2016081718180E090E0A3010E94F9
:101E40000A14E82EE6180F77302E36FE0BC0332D1D
:101E50003E7FE11650F434FE0AC032FC08C0332D38
:101E60003E7E05C00E2D332D03C00E2D01C0012F67
:101E700034FF0CC0FE01EE0DF11D8081803311F4A2
:101E8000397E08C032FF05C00E5F04C0832F8678FC
:101E900009F00F5F33FD13C030FF06C01E2D0F1574
:101EA00018F41F0D101B0F2D0F1568F4B60180E2FA
:101EB00090E03B8B0E94D2130F5F3B89F5CF0F154B
:101EC00010F4F01A01C0F12C34FF12C0B60180E307
:101ED00090E03B8B0E94D2133B8932FF17C031FD4B
:101EE00003C088E790E002C088E590E0B6010CC02E
:101EF000832F867859F031FF02C08BE201C080E267
:101F000037FD8DE2B60190E00E94D213E11638F45D
:101F1000B60180E390E00E94D2131150F7CFEA940B
:101F2000F301EE0DF11D8081B60190E00E94D21305
:101F3000E110F5CF14C0F4E0FF1558F584E0F81A6D
:101F400033FE1EC0211026C003FF2AC00CE810E09B
:101F5000F32DF0713F2EF8018491811124C0FF20F0
:101F600009F4E5CCB60180E290E00E94D213FA9425
:101F7000F6CFF6018681978126C08FEF9FEF23C0B1
:101F8000B60180E290E00E94D213FA94F110F8CFEB
:101F9000D9CFF12CB601822D90E00E94D213D4CF7C
:101FA00000E910E0D5CF31108052B60190E00E94D8
:101FB000D2130F5F1F4FCFCF23E02F1510F483E014
:101FC000BECFF12CC1CF6396E2E10C9449100E9480
:101FD000FC0282EF90E090930801809307018091CA
:101FE0007E0190917F01892B31F486E091E09093FE
:101FF00006018093050160E371E08CE091E00E94AE
:10200000F80380E090E0089597FB072E16F4009403
:1020100007D077FD09D00E94641007FC05D03EF47C
:10202000909581959F4F0895709561957F4F089584
:10203000EE0FFF1F0590F491E02D0994A29FB001CF
:10204000B39FC001A39F700D811D1124911DB29FEC
:10205000700D811D1124911D08952F923F924F9272
:102060005F926F927F928F929F92AF92BF92CF9228
:10207000DF92EF92FF920F931F93CF93DF93CDB731
:10208000DEB7CA1BDB0B0FB6F894DEBF0FBECDBFA9
:1020900009942A88398848885F846E847D848C847A
:1020A0009B84AA84B984C884DF80EE80FD800C8183
:1020B0001B81AA81B981CE0FD11D0FB6F894DEBF66
:1020C0000FBECDBFED010895AA1BBB1B51E107C098
:1020D000AA1FBB1FA617B70710F0A61BB70B881FB8
:1020E000991F5A95A9F780959095BC01CD01089547
:1020F0005058BB27AA270E9490100C94E1110E940F
:10210000D31138F00E94DA1120F039F49F3F19F40E
:1021100026F40C94D0110EF4E095E7FB0C94CA1150
:10212000E92F0E94F21158F3BA1762077307840768
:10213000950720F079F4A6F50C9414120EF4E095AE
:102140000B2EBA2FA02D0B01B90190010C01CA0171
:10215000A0011124FF27591B99F0593F50F4503E1C
:1021600068F11A16F040A22F232F342F4427585F0E
:10217000F3CF469537952795A795F0405395C9F726
:102180007EF41F16BA0B620B730B840BBAF09150DE
:10219000A1F0FF0FBB1F661F771F881FC2F70EC07D
:1021A000BA0F621F731F841F48F487957795679550
:1021B000B795F7959E3F08F0B0CF9395880F08F03C
:1021C0009927EE0F9795879508950E94F9100C9422
:1021D000E1110E94DA1158F00E94D31140F029F465
:1021E0005F3F29F00C94CA1151110C9415120C94F4
:1021F000D0110E94F21168F39923B1F3552391F3A2
:10220000951B550BBB27AA2762177307840738F065
:102210009F5F5F4F220F331F441FAA1FA9F335D0C2
:102220000E2E3AF0E0E832D091505040E695001C76
:10223000CAF72BD0FE2F29D0660F771F881FBB1F30
:10224000261737074807AB07B0E809F0BB0B802D0E
:10225000BF01FF2793585F4F3AF09E3F510578F03A
:102260000C94CA110C9415125F3FE4F3983ED4F31A
:10227000869577956795B795F7959F5FC9F7880F0E
:10228000911D9695879597F90895E1E0660F771F60
:10229000881FBB1F621773078407BA0720F0621BF1
:1022A000730B840BBA0BEE1F88F7E09508950E941C
:1022B0005E116894B1110C94151208950E94FA11E0
:1022C00088F09F5798F0B92F9927B751B0F0E1F0F7
:1022D000660F771F881F991F1AF0BA95C9F714C0A7
:1022E000B13091F00E941412B1E008950C941412D0
:1022F000672F782F8827B85F39F0B93FCCF38695E0
:1023000077956795B395D9F73EF49095809570953C
:1023100061957F4F8F4F9F4F0895E89409C097FBB9
:102320003EF490958095709561957F4F8F4F9F4FAC
:102330009923A9F0F92F96E9BB279395F6958795F0
:1023400077956795B795F111F8CFFAF4BB0F11F4B3
:1023500060FF1BC06F5F7F4F8F4F9F4F16C088235A
:1023600011F096E911C0772321F09EE8872F762F90
:1023700005C0662371F096E8862F70E060E02AF0D1
:102380009A95660F771F881FDAF7880F96958795BD
:1023900097F9089597F99F6780E870E060E00895E5
:1023A0009FEF80EC089500240A941616170618066D
:1023B0000906089500240A94121613061406050649
:1023C0000895092E0394000C11F4882352F0BB0FDA
:1023D00040F4BF2B11F460FF04C06F5F7F4F8F4F3D
:1023E0009F4F089557FD9058440F551F59F05F3F78
:1023F00071F04795880F97FB991F61F09F3F79F027
:1024000087950895121613061406551FF2CF4695A8
:10241000F1DF08C0161617061806991FF1CF86952A
:102420007105610508940895E894BB27662777270E
:10243000CB0197F908950E942E120C94E1110E948D
:10244000D31138F00E94DA1120F0952311F00C948A
:10245000CA110C94D01111240C9415120E94F2117F
:1024600070F3959FC1F3950F50E0551F629FF001E7
:10247000729FBB27F00DB11D639FAA27F00DB11D00
:10248000AA1F649F6627B00DA11D661F829F222789
:10249000B00DA11D621F739FB00DA11D621F839F10
:1024A000A00D611D221F749F3327A00D611D231FE6
:1024B000849F600D211D822F762F6A2F11249F5734
:1024C00050409AF0F1F088234AF0EE0FFF1FBB1F37
:1024D000661F771F881F91505040A9F79E3F5105F6
:1024E00080F00C94CA110C9415125F3FE4F3983EEF
:1024F000D4F3869577956795B795F795E7959F5FA0
:10250000C1F7FE2B880F911D9695879597F9089531
:102510008F929F92AF92BF92CF92DF92EF92FF92F3
:10252000CF93DF93EC01688179818A819B8161156A
:1025300071058105910521F464E279ED8BE597E061
:102540002DE133EF41E050E00E947E1449015A0131
:102550009B01AC01A7EAB1E40E949D146B017C01D0
:10256000ACEEB4EFA50194010E94AB14DC01CB01E9
:102570008C0D9D1DAE1DBF1DB7FF03C00197A109A6
:10258000B04888839983AA83BB839F77DF91CF91DB
:10259000FF90EF90DF90CF90BF90AF909F908F9083
:1025A00008950E948812089589E091E00E9488129F
:1025B0000895A0E0B0E08093090190930A01A093F0
:1025C0000B01B0930C010895283008F027E0332761
:1025D000DA01990F311D87FD916000966105710543
:1025E00039F432602E5F3D9330E32A95E1F7089588
:1025F0009F3F30F080387105610509F03C5F3C5F1A
:102600003D93913008F08068911DDF93CF931F9325
:102610000F93FF92EF92192F987F9695E92F969539
:102620009695E90FFF27E251FF4F99273327EE24B4
:10263000FF24A701E70105900894079428F4360FBA
:10264000E71EF81E491F511D660F771F881F991F2F
:102650000694A1F70590079428F4E70EF81E491F89
:10266000561FC11D770F881F991F661F0694A1F77B
:102670000590079428F4F80E491F561FC71FD11D57
:10268000880F991F661F771F0694A1F7059007947E
:1026900020F4490F561FC71FD81F990F661F771FB9
:1026A000881F0694A9F784911095177041F0D6956C
:1026B000C79557954795F794E7941A95C1F7E4E9BC
:1026C000F0E068941590159135916591959105907C
:1026D0007FE27395E118F10A430B560BC90BD00941
:1026E000C0F7E10CF11E431F561FC91FD01D7EF419
:1026F000703311F48A95E6CFE894015030F0080F5A
:102700000AF40027021708F4202F2395022F7A33AA
:1027100028F079E37D932A95E9F710C07D932A95F7
:1027200089F6069497956795379517951794E1184C
:10273000F10A430B560BC90BD00998F023957E91F3
:1027400073957A3308F070E37C932013B8F77E9189
:1027500070617D9330F0839571E37D9370E32A95EA
:10276000E1F71124EF90FF900F911F91CF91DF912E
:10277000992787FD90950895FC0105906150704060
:102780000110D8F7809590958E0F9F1F0895FC013A
:102790006150704001900110D8F7809590958E0F90
:1027A0009F1F08950F931F93CF93DF93FB01238106
:1027B00021FD03C08FEF9FEF28C022FF16C0468186
:1027C0005781248135814217530744F4A081B18198
:1027D0009D012F5F3F4F318320838C93268137816A
:1027E0002F5F3F4F3783268310C0EB01092F182F2F
:1027F0000084F185E02D0995892BE1F68E819F817A
:1028000001969F838E83812F902FDF91CF911F910F
:102810000F910895FA01AA27283051F1203181F152
:10282000E8946F936E7F6E5F7F4F8F4F9F4FAF4FD8
:10283000B1E03ED0B4E03CD0670F781F891F9A1FEB
:10284000A11D680F791F8A1F911DA11D6A0F711D9F
:10285000811D911DA11D20D009F468943F912AE0AB
:10286000269F11243019305D3193DEF6CF01089593
:10287000462F4770405D4193B3E00FD0C9F7F6CFC4
:10288000462F4F70405D4A3318F0495D31FD40528C
:10289000419302D0A9F7EACFB4E0A6959795879522
:1028A00077956795BA95C9F7009761057105089501
:1028B0009B01AC010A2E06945795479537952795AD
:1028C000BA95C9F7620F731F841F951FA01D089545
:1028D000F999FECF92BD81BDF89A992780B50895E8
:1028E000262FF999FECF1FBA92BD81BD20BD0FB62C
:1028F000F894FA9AF99A0FBE01960895052E97FB5F
:102900001EF400940E94951457FD07D00E94B01445
:1029100007FC03D04EF40C949514509540953095D7
:1029200021953F4F4F4F5F4F08959095809570953B
:1029300061957F4F8F4F9F4F08950E941E10A59F56
:10294000900DB49F900DA49F800D911D11240895AA
:10295000B7FF0C949D140E949D14821B930B089545
:10296000A1E21A2EAA1BBB1BFD010DC0AA1FBB1F93
:10297000EE1FFF1FA217B307E407F50720F0A21B05
:10298000B30BE40BF50B661F771F881F991F1A9472
:1029900069F760957095809590959B01AC01BD019C
:0829A000CF010895F894FFCF68
:0E29A8001201AAFB02F802F702010000000073
:00000001FF
